:1000000096C00000B3C00000B1C00000AFC0000047
:10001000ADC00000ABC00000A9C00000A7C0000038
:10002000A5C00000A3C000000C949E0A9FC0000061
:100030009DC000009BC0000099C0000097C0000058
:1000400095C0000093C0000091C000008FC0000068
:100050008DC000008BC0000089C0000087C0000078
:1000600085C0000083C0000081C000007FC0000088
:100070007DC000007BC0000079C0000077C0000098
:1000800075C0000073C0000071C00000F5000101E0
:100090000D011B012901350139013D014101D10A41
:1000A000FD0A350B620B900BBD0BEA0B080000003C
:1000B000BE922449123EABAAAA2ABECDCCCC4C3E5D
:1000C00000000080BEABAAAAAA3E00000000BF004C
:1000D0000000803F0000000000084178D3BB438748
:1000E000D1133D190E3CC3BD4282AD2B3E68EC825C
:1000F00076BED98FE1A93E4C80EFFFBE01C4FF7FE1
:100100003F000000000007634236B79BD8A71A39AA
:10011000685618AEBAAB558C1D3CB7CC5763BD6D55
:10012000EDFD753EF6177231BF000000803F1124CF
:100130001FBECFEFD0E1DEBFCDBF11E0A0E0B1E048
:10014000E4E3F5E200E00BBF02C007900D92A63A8F
:10015000B107D9F722E0A6EAB1E001C01D92AC34A4
:10016000B207E1F70E9438090C94981249CFBC01FC
:10017000990F880B990B0E94230D9B01AC0160E045
:1001800070EC8FE794E40E948D0C20E030E040EAB0
:1001900050E40E94FE0D20E030E040E85FE30E9462
:1001A000280C20E030E040E251E40C94FE0D08956C
:1001B000DEDF20E030E84CE454E40E948D0C2EEDAC
:1001C00037E341E350EC0E94610E22E434E349EE50
:1001D00052E40C94FE0D08958930910508F054C046
:1001E000FC01EA5BFF4F0C94A50F8BB38F7E8BBB9A
:1001F00081E090E099BD88BD90937900809378006C
:1002000008958BB38F7E8BBB80E49CE999BD88BD3C
:10021000909379008093780008958BB380618BBBB5
:1002200081E090E099BD88BD8FE39CE990937900CF
:100230008093780008958BB380618BBB80E49CE948
:1002400099BD88BD81E090E090937900809378001B
:1002500008958BB38F7E8BBB80E395E799BD88BDF6
:10026000909379008093780008958BB380618BBB65
:1002700008958BB380618BBB08958BB380618BBB7A
:1002800008958BB380618BBB08958BB380618BBB6A
:1002900087B3806487BB87B3806887BB0895EBE929
:1002A000F0E080818F7D8083EAE9F0E080818061E9
:1002B0008083808188608083EDE9F0E080818460C4
:1002C000808380818260808387E68093990008958F
:1002D00090919B0095FFFCCF80939C000895EF9236
:1002E000FF920F931F93CF93DF93EC0180919B00BC
:1002F00085FFFCCF7E01F694E794F694E794F6949C
:10030000E794F694E7949701A7E4B3E00E94AE0F58
:100310008C0116950795169507951695079580E318
:10032000800FD6DF20E137E2029FC001039F900DCE
:10033000129F900D1124C81BD90B7E01F694E794EF
:10034000F694E794F694E7949701A5ECB0E20E9446
:10035000AE0F8C01129502950F7001271F700127B7
:1003600080E3800FB5DF28EE33E0029FC001039FDA
:10037000900D129F900D1124C81BD90B7E01F6948D
:10038000E794F694E7949701ABE7B4E10E94AE0FCF
:100390008C011695079580E3800F9ADF24E6209F55
:1003A000C001219F900D1124C81BD90B9E01ADECFB
:1003B000BCEC0E94AE0F8C0116950795169507951B
:1003C0001695079580E3800F83DFC801880F991F7A
:1003D000000F111F000F111F000F111F080F191F11
:1003E000CE01801B910B805D73DFDF91CF911F9158
:1003F0000F91FF90EF900895CF92DF92EF92FF92CE
:10040000BC01990F880B990B0E94230D20E030E06E
:1004100040EA5BE30E94FE0D2BE734E14EE85FEB20
:100420000E94610E29E23CE24EE054E40E94FE0D7F
:100430006B017C0120E030E046E953E40E94AF0DFF
:10044000181634F0C701B6010E94F50CCB0102C0AA
:100450008CE291E0FF90EF90DF90CF9008958F9223
:100460009F92AF92BF92CF92DF92EF92FF92BC0128
:10047000990F880B990B0E94230D20E030E040EA91
:100480005BE30E94FE0D6B017C0120E030E040E860
:1004900050E40E94610E20E53CEF48E45FE30E94D7
:1004A000FE0D4B015C0120E030E040E450E4C70168
:1004B000B6010E94610E28EE3AE640E151E40E9446
:1004C000FE0D9B01AC01C501B4010E94280C4B013B
:1004D0005C012AE43CE041E252E4C701B6010E941B
:1004E000FE0D9B01AC01C701B6010E94FE0D9B01F0
:1004F000AC01C501B4010E94290C4B015C0128E646
:1005000031E94DE352E4C701B6010E94FE0D9B01A3
:10051000AC01C501B4010E94280C27E73EEB4CEA70
:1005200051E40E94290C4B015C0122E538EB4EE7B7
:1005300050E4C701B6010E94AF0D181634F0C50192
:10054000B4010E94F50CCB0102C084E690E0FF905C
:10055000EF90DF90CF90BF90AF909F908F900895D5
:10056000BC0180E090E00E94210D20E030E040EAF4
:100570005BE30E94FE0D9B01AC0160E078E987EB34
:1005800096E40E948D0C20E030EE42E955E40E9492
:10059000280C0E94B30D26E933E443E950E40E949D
:1005A000280C2DEC3CEC4CE45FE30E948D0C9B018D
:1005B000AC0160E070E080E89FE30E94280C9B01A2
:1005C000AC0160E070E080E291E40E94610E0E9464
:1005D000F50CCB010895BC0180E090E00E94210D54
:1005E00020E030E040E85EE30E94FE0D20E030E0D5
:1005F00040EA5BE30E94FE0D20E030E048EC52E46C
:100600000E94FE0D0E94F50CCB0108958F929F92DF
:10061000AF92BF92CF92DF92EF92FF92BC01990FFF
:10062000880B990B0E94230D20E030E040EA5BE349
:100630000E94FE0D20E030E040E450E40E948D0C6A
:100640006B017C012BE33FED4FED50E40E94FE0D6A
:1006500023EC35EF4CEB50E40E94280C4B015C017D
:1006600023E23BED49EA5FE3C701B6010E94FE0DBC
:100670009B01AC01C701B6010E94FE0D9B01AC01BC
:10068000C501B4010E94280C9B01AC0160E070E040
:1006900080E291E40E94610E0E94F50CCB01FF9074
:1006A000EF90DF90CF90BF90AF909F908F90089584
:1006B000CF92DF92EF92FF920F931F93CF93DF932E
:1006C00060934002709341028093420290934302F0
:1006D00010923402109235021092360210923702B4
:1006E000C0E0D0E0C330D1053CF59E01220F331F9E
:1006F000220F331FF901EA57FE4F60817181828119
:100700009381F901E05CFD4F208131814281538169
:1007100004E312E0F801C080D180E280F3800E94FF
:10072000FE0DA70196010E94290CF80160837183D8
:10073000828393832196D6CFC1E0D0E0C330D10528
:100740004CF59E01220F331F220F331FF901E6588B
:10075000FE4F608171818281938104E312E0F9018F
:10076000EC5CFD4F2081318142815381F801C080D2
:10077000D180E280F3800E94FE0D9B01AC01C70195
:10078000B6010E94280CF8016083718382839383F1
:100790002196D4CFE4E3F2E084819581A681B781EC
:1007A000408151816281738144835583668377835D
:1007B00080879187A287B387A0E4B2E014964D9119
:1007C0005D916D917C9117970D911D912D913C91AB
:1007D000139714960D931D932D933C93179718968A
:1007E0004D935D936D937C931B97608171818281A2
:1007F0009381DF91CF911F910F91FF90EF90DF9048
:10080000CF900895CF92DF92EF92FF920F931F93B4
:10081000CF93DF93609328027093290280932A027A
:1008200090932B0210921C0210921D0210921E0235
:1008300010921F02C0E0D0E0C330D10534F59E0114
:10084000220F331F220F331FF901E259FE4F60813F
:10085000718182819381F901E85DFD4F20813181B1
:10086000428153810CE112E0F801C080D180E28026
:10087000F3800E94FE0DA7019601EBD7F80160837B
:100880007183828393832196D7CFC1E0D0E0C330B8
:10089000D10544F59E01220F331F220F331FF901AA
:1008A000EE59FE4F60817181828193810CE112E0EB
:1008B000F901E45EFD4F2081318142815381F801CD
:1008C000C080D180E280F3800E94FE0D9B01AC01CC
:1008D000C701B601BDD7F80160837183828393831A
:1008E0002196D5CFECE1F2E084819581A681B78194
:1008F000408151816281738144835583668377830C
:1009000080879187A287B387A8E2B2E014964D91C1
:100910005D916D917C9117970D911D912D913C9159
:10092000139714960D931D932D933C931797189638
:100930004D935D936D937C931B9760817181828150
:100940009381DF91CF911F910F91FF90EF90DF90F6
:10095000CF900895CF92DF92EF92FF920F931F9363
:10096000CF93DF9360931002709311028093120271
:100970009093130210920402109205021092060244
:1009800010920702C0E0D0E0C330D10534F59E01DB
:10099000220F331F220F331FF901EA5AFE4F6081E5
:1009A000718182819381F901E05FFD4F2081318166
:1009B0004281538104E012E0F801C080D180E280DE
:1009C000F3800E94FE0DA701960143D7F8016083D2
:1009D0007183828393832196D7CFC1E0D0E0C33067
:1009E000D10544F59E01220F331F220F331FF90159
:1009F000E65BFE4F608171818281938104E012E0A9
:100A0000F901EC5FFD4F2081318142815381F80172
:100A1000C080D180E280F3800E94FE0D9B01AC017A
:100A2000C701B60115D7F801608371838283938370
:100A30002196D5CFE4E0F2E084819581A681B7814B
:100A400040815181628173814483558366837783BA
:100A500080879187A287B387A0E1B2E014964D9179
:100A60005D916D917C9117970D911D912D913C9108
:100A7000139714960D931D932D933C9317971896E7
:100A80004D935D936D937C931B97608171818281FF
:100A90009381DF91CF911F910F91FF90EF90DF90A5
:100AA000CF900895CF92DF92EF92FF920F931F9312
:100AB000CF93DF936093F8017093F9018093FA016B
:100AC0009093FB011092EC011092ED011092EE0157
:100AD0001092EF01C0E0D0E0C330D10534F59E01A3
:100AE000220F331F220F331FF901E25CFE4F60819A
:100AF000718182819381F901E850FE4F208131811B
:100B0000428153810CEE11E0F801C080D180E28077
:100B1000F3800E94FE0DA70196019BD6F801608329
:100B20007183828393832196D7CFC1E0D0E0C33015
:100B3000D10544F59E01220F331F220F331FF90107
:100B4000EE5CFE4F60817181828193810CEE11E039
:100B5000F901E451FE4F2081318142815381F80136
:100B6000C080D180E280F3800E94FE0D9B01AC0129
:100B7000C701B6016DD6F8016083718382839383C8
:100B80002196D5CFECEEF1E084819581A681B781E5
:100B90004081518162817381448355836683778369
:100BA00080879187A287B387A8EFB1E014964D9113
:100BB0005D916D917C9117970D911D912D913C91B7
:100BC000139714960D931D932D933C931797189696
:100BD0004D935D936D937C931B97608171818281AE
:100BE0009381DF91CF911F910F91FF90EF90DF9054
:100BF000CF900895CF92DF92EF92FF920F931F93C1
:100C0000CF93DF936093E0017093E1018093E20161
:100C10009093E3011092D4011092D5011092D60165
:100C20001092D701C0E0D0E0C330D1052CF59E0171
:100C3000220F331F220F331FF901EA5DFE4F60813F
:100C4000718182819381F901E052FE4F20813181CF
:100C50004281538104ED11E0F801C080D180E2802F
:100C6000F380CCD7A7019601F4D5F8016083718396
:100C7000828393832196D8CFC1E0D0E0C330D105E1
:100C80003CF59E01220F331F220F331FF901E65E50
:100C9000FE4F608171818281938104ED11E0F90141
:100CA000EC52FE4F2081318142815381F801C08096
:100CB000D180E280F380A2D79B01AC01C701B601CD
:100CC000C7D5F80160837183828393832196D6CF41
:100CD000E4EDF1E084819581A681B7814081518165
:100CE000628173814483558366837783808791878C
:100CF000A287B387A0EEB1E014964D915D916D91FE
:100D00007C9117970D911D912D913C9113971496FD
:100D10000D931D932D933C93179718964D935D93C8
:100D20006D937C931B976081718182819381DF91A8
:100D3000CF911F910F91FF90EF90DF90CF9008958A
:100D4000CF92DF92EF92FF920F931F93CF93DF9397
:100D50006093C8017093C9018093CA019093CB013D
:100D60001092BC011092BD011092BE011092BF0101
:100D7000C0E0D0E0C330D1052CF59E01220F331F17
:100D8000220F331FF901E25FFE4F60817181828182
:100D90009381F901E853FE4F2081318142815381D3
:100DA0000CEB11E0F801C080D180E280F38026D7FF
:100DB000A70196014ED5F8016083718382839383E6
:100DC0002196D8CFC1E0D0E0C330D1053CF59E01DB
:100DD000220F331F220F331FF901EE5FFE4F608198
:100DE0007181828193810CEB11E0F901E454FE4F93
:100DF0002081318142815381F801C080D180E2801D
:100E0000F380FCD69B01AC01C701B60121D5F801E6
:100E100060837183828393832196D6CFECEBF1E0DC
:100E200084819581A681B7814081518162817381DE
:100E3000448355836683778380879187A287B387AE
:100E4000A8ECB1E014964D915D916D917C9117974E
:100E50000D911D912D913C91139714960D931D9317
:100E60002D933C93179718964D935D936D937C93B8
:100E70001B976081718182819381DF91CF911F9156
:100E80000F91FF90EF90DF90CF9008951BB888E00E
:100E90008AB986E0809395001092900019B8089561
:100EA00082B1826082B982B18E7F82B908955D9BE2
:100EB000FECF8CB90895FF920F931F93CF93DF93CA
:100EC000082FF62E172FD42FC52F8FEFF0DF8FEFBF
:100ED000EEDF802FECDF87E0EADF83E0E8DF8EE102
:100EE000E6DF8F2DE4DF812FE2DF8D2FE0DF8C2F17
:100EF000DEDF8F2D800F810F8D0F8C0F885D809529
:100F0000D6DFDF91CF911F910F91FF90089540E0C0
:100F100050E067E771E081E0CECF089540E050E017
:100F200060E072E081E0C7CF089540E050E064E403
:100F300072E081E0C0CF089540E050E06BEA72E0DB
:100F400081E0B9CF08958FE39FE10197F1F700C0E9
:100F50000000089520E030E02817390748F40F9288
:100F60000F900F920F900F920F902F5F3F4FF4CF83
:100F70000895CF93C82FE7DF8C2F807F85BB85B383
:100F80008E7F85BB85B38D7F85BB81E090E0E2DFFE
:100F900085B3846085BB81E090E0DCDF85B38B7F27
:100FA00085BB20E1C29FC001112485BB85B38E7F24
:100FB00085BB85B38D7F85BB81E090E0CBDF85B3BA
:100FC000846085BB81E090E0C5DF85B38B7F85BB06
:100FD000CF91089581E0CDCF0895811104C080E8BC
:100FE000860FC7CF089580EC860FC3CF0895CF93A7
:100FF000C82FA9DF8C2F807F85BB85B3816085BB1F
:1010000085B38D7F85BB81E090E0A4DF85B38460EC
:1010100085BB81E090E09EDF85B38B7F85BB20E1BF
:10102000C29FC001112485BB85B3816085BB85B398
:101030008D7F85BB81E090E08DDF85B3846085BBCB
:1010400081E090E087DF85B38B7F85BBCF910895EA
:10105000CF93DF93EA01C1DF8881882319F02196BD
:10106000C6DFFACFDF91CF910895EF92FF920F93F1
:101070001F93CF93DF93CDB7DEB7C456D1090FB618
:10108000F894DEBF0FBECDBFF82EE62E8E010F5FA7
:101090001F4F84E6F80111928A95E9F75F934F9309
:1010A00082E991E09F938F931F930F9366D7A801D6
:1010B0006E2D8F2DCDDF0F900F900F900F900F9012
:1010C0000F90CC59DF4F0FB6F894DEBF0FBECDBFE7
:1010D000DF91CF911F910F91FF90EF9008952FEF27
:1010E00086E791E0215080409040E1F700C0000089
:1010F0008FEF84BB85B38B7F85BB8FE59AEE01971D
:10110000F1F700C0000080E234DF8FE19EE4019738
:10111000F1F700C0000080E22CDF88EC90E01ADFDD
:1011200080E227DF88E225DF8CE023DF81E021DF1A
:1011300086E01FDF45E951E060E080E089CF089557
:1011400088EE93E09BBD8ABD089580ED97E09BBD3E
:101150008ABD0895E1E6F0E080818E7F8083808102
:101160008D7F808380818B7F80838081877F808358
:1011700080818F7E808380818F7D80838AB3806130
:101180008ABB87B3806287BB8AB381608ABB8AB31C
:1011900082608ABB8AB384608ABB8AB388608ABB58
:1011A0008AB380628ABB8BB380628BBB82B188605A
:1011B00082B982B1806182B9089517B887E886B98B
:1011C0000895806487B986B1806486B9349BFECF68
:1011D00086B18F7E86B984B195B108958DE685BDBF
:1011E00080E487BF08958AEA8FBD8AE18EBD80E4DE
:1011F0009CE997BD86BD88EB9BE09BBD8ABD80E3E3
:1012000095E799BD88BD9093790080937800089503
:10121000EBE8F0E080818068808380818062808359
:1012200080818260808380818E7F8083EAE8F0E025
:1012300080818061808380818860808380818B7FD2
:10124000808380818260808380818160808383EC61
:1012500099E0909381008093800081E090E09093EA
:101260008700809386009093850080938400089582
:1012700071DF0BD834DFAEDEA0DFB5DFC9DF8BB3A3
:1012800081608BBB8BB38D7F8BBB8BB384608BBB3F
:101290008BB3877F8BBB04DEF9DD01D89FDF7894A9
:1012A000FFCF8091000190910101880F991F880F55
:1012B000991F909387008093860008958091000184
:1012C00090910101880F991F880F991F90938500B5
:1012D0008093840008958091000190910101909382
:1012E000870080938600089580910001909101010C
:1012F0009093850080938400089581E090E090931E
:10130000870080938600089581E090E090938500A7
:101310008093840008958091BA019091BB018A3036
:10132000910549F08F30910551F0892B71F48BB301
:101330008F7D8BBB0AC08BB380628BBB06C08FEFE7
:101340009FEF9093BB018093BA018091BA01909175
:10135000BB0101969093BB018093BA0108958BB3B2
:1013600080628BBB0895CF92DF92EF92FF92C2977B
:1013700008F041C0609186007091870080E090E0A5
:1013800060D36B017C01609180007091810080E0EE
:1013900090E057D320E030E040E05FE32FD49B01A2
:1013A000AC01C701B601DBD31816F4F060918400DC
:1013B0007091850080E090E044D36B017C016091E6
:1013C00080007091810080E090E03BD320E030E02D
:1013D00040E05FE313D49B01AC01C701B601BFD36A
:1013E000181624F481E003C081E001C080E0882366
:1013F00011F07ADF70DFFF90EF90DF90CF900895CB
:101400006130710579F426E930E0A901481B590BD8
:101410004F30510510F482CD08954031510560F0F0
:1014200076CD0895845691098F30910510F47DCDC5
:101430000895409708F080CD08950F931F93CF93A0
:10144000DF93EC018B0181DE2FEF83ED90E32150E0
:1014500080409040E1F700C0000060DD2FEF83ED99
:1014600090E3215080409040E1F700C0000068DE2A
:101470002FEF83ED90E3215080409040E1F700C0D2
:101480000000B801CE01BCDF2FEF83ED90E32150C7
:1014900080409040E1F700C0000057DEDF91CF911F
:1014A0001F910F910895CF93DF93EB019C01225080
:1014B00031092230310540F448E750E06FE081E027
:1014C000D4DDEFDEFBDE1BC0059798F0EADEF6DE2A
:1014D0008091B4019091B501892B89F461E070E0AD
:1014E000CE01ABDF81E090E09093B5018093B40131
:1014F00006C01092B5011092B401FFDE05DFDF9146
:10150000CF9108958536910510F005CF089527CF26
:1015100008958733910528F483E090E00C94EC0063
:1015200008958B34910528F482E090E00C94EC004F
:10153000089584E090E00C94EC0008951F920F92BF
:101540000FB60F9211240BB60F922F933F934F9328
:101550005F936F937F938F939F93AF93BF93CF933B
:10156000DF93EF93FF93F8948091B6019091B701C8
:101570008431910534F401969093B7018093B601BC
:1015800005C01092B7011092B60124DDE091B801B8
:10159000F091B901E730F10508F02CC1E15BFF4F94
:1015A000D4C480E090E00DDEBC0180E090E049D240
:1015B000D1D91BD2CB012AD89093A9018093A8013D
:1015C000E091B801F091B901EE0FFF1FE855FE4F11
:1015D000808191810E946F018CE20E946801E091FC
:1015E000B801F091B901EE0FFF1FE855FE4F4081A1
:1015F000518160E080E039DDFDC081E090E0E1DD17
:10160000BC0180E090E01DD29BDBEFD1CB010E94BA
:10161000D800EBD17093AB016093AA01E091B801BF
:10162000F091B901EE0FFF1FE855FE4F80819181C7
:101630000E946F018CE20E9468014DE951E062E076
:1016400080E006DDE091B801F091B901EE0FFF1FD7
:10165000E855FE4F4081518166E080E006DD41EAB9
:1016600051E069E080E0F4DCC5C082E090E0A9DDF3
:10167000BC0180E090E0E5D115DAB7D1CB010E9442
:10168000B0029093AD018093AC01E091B801F0916C
:10169000B901EE0FFF1FE855FE4F808191810E9436
:1016A0006F018CE20E946801E091B801F091B901EC
:1016B000EE0FFF1FE855FE4F408151816CE080E046
:1016C000D4DC98C083E090E07CDDBC0180E090E059
:1016D000B8D10E94580389D1CB010E94FC0190939C
:1016E000AF018093AE01E091B801F091B901EE0F26
:1016F000FF1FE855FE4F808191810E946F018CE2AF
:101700000E946801E091B801F091B901EE0FFF1F4E
:10171000E855FE4F4081518160E081E0A6DC6AC05F
:1017200084E090E04EDDBC0180E090E08AD162DA96
:101730005CD1CB010E94EB029093B1018093B00188
:10174000E091B801F091B901EE0FFF1FE855FE4F8F
:10175000808191810E946F018CE20E946801E0917A
:10176000B801F091B901EE0FFF1FE855FE4F40811F
:10177000518166E081E079DC3DC085E090E021DDCB
:10178000BC0180E090E05DD13DD82FD1CB010E941B
:101790002F029093B3018093B201E091B801F091D0
:1017A000B901EE0FFF1FE855FE4F808191810E9425
:1017B0006F018DE00E946801E091B801F091B901DC
:1017C000EE0FFF1FE855FE4F408151816CE081E034
:1017D0004CDC10C0C8EAD1E06E817F81888199819C
:1017E00062DE8C819D81BFDD888599858BDE8A854F
:1017F0009B858FDE8091B8019091B901873091056A
:1018000034F401969093B9018093B80104C010920A
:10181000B9011092B8018091A6019091A701892B7E
:1018200009F079DD7894FF91EF91DF91CF91BF912D
:10183000AF919F918F917F916F915F914F913F9168
:101840002F910F900BBE0F900FBE0F901F90189509
:101850005058BB27AA270ED048C139D130F03ED10D
:1018600020F031F49F3F11F41EF42EC10EF4E095E8
:10187000E7FB24C1E92F4AD180F3BA176207730747
:101880008407950718F071F49EF562C10EF4E09597
:101890000B2EBA2FA02D0B01B90190010C01CA012A
:1018A000A0011124FF27591B99F0593F50F4503ED5
:1018B00068F11A16F040A22F232F342F4427585FC7
:1018C000F3CF469537952795A795F0405395C9F7DF
:1018D0007EF41F16BA0B620B730B840BBAF0915097
:1018E000A1F0FF0FBB1F661F771F881FC2F70EC036
:1018F000BA0F621F731F841F48F487957795679509
:10190000B795F7959E3F08F0B3CF9395880F08F0F1
:101910009927EE0F9795879508950CD0E6C0DED0F5
:1019200040F0D5D030F021F45F3F19F0C7C051111D
:1019300010C1CAC0EBD098F39923C9F35523B1F372
:10194000951B550BBB27AA2762177307840738F02E
:101950009F5F5F4F220F331F441FAA1FA9F333D08D
:101960000E2E3AF0E0E830D091505040E695001C41
:10197000CAF729D0FE2F27D0660F771F881FBB1FFD
:10198000261737074807AB07B0E809F0BB0B802DD7
:10199000BF01FF2793585F4F2AF09E3F510568F023
:1019A0008DC0D7C05F3FECF3983EDCF3869577950A
:1019B0006795B795F7959F5FC9F7880F911D969525
:1019C000879597F90895E1E0660F771F881FBB1F81
:1019D000621773078407BA0720F0621B730B840B2E
:1019E000BA0BEE1F88F7E095089598D088F09F57BE
:1019F00090F0B92F9927B751A0F0D1F0660F771F5B
:101A0000881F991F1AF0BA95C9F712C0B13081F03A
:101A10009FD0B1E008959CC0672F782F8827B85FCA
:101A200039F0B93FCCF3869577956795B395D9F79B
:101A30003EF490958095709561957F4F8F4F9F4FA5
:101A40000895E89409C097FB3EF4909580957095B1
:101A500061957F4F8F4F9F4F9923A9F0F92F96E9FA
:101A6000BB279395F695879577956795B795F1116F
:101A7000F8CFFAF4BB0F11F460FF1BC06F5F7F4F0C
:101A80008F4F9F4F16C0882311F096E911C077231E
:101A900021F09EE8872F762F05C0662371F096E827
:101AA000862F70E060E02AF09A95660F771F881FF6
:101AB000DAF7880F9695879597F9089597F99F67B4
:101AC00080E870E060E008959FEF80EC08950024C6
:101AD0000A941616170618060906089500240A9493
:101AE00012161306140605060895092E0394000C19
:101AF00011F4882352F0BB0F40F4BF2B11F460FFA8
:101B000004C06F5F7F4F8F4F9F4F089557FD9058D0
:101B1000440F551F59F05F3F71F04795880F97FBB1
:101B2000991F61F09F3F79F087950895121613066B
:101B30001406551FF2CF4695F1DF08C0161617069A
:101B40001806991FF1CF86957105610508940895CF
:101B5000E894BB2766277727CB0197F908952ED104
:101B600008F48FEF08950AD029ED3BE54EED5EE3D2
:101B700045C00EF047C1A8CF6894A0CFCFDFC8F30F
:101B80009923D1F3C6F3DF93CF931F930F93FF9263
:101B9000C92FDD2788232AF02197660F771F881F1A
:101BA000DAF720E030E040E85FEB9FE3883920F08F
:101BB000803E30F021968F774CDEECEAF0E003C0F7
:101BC00048DEE9EDF0E02CD18B01BE01EC01FB2EEB
:101BD0006F5771097595771F880B990B34DF28E1D2
:101BE00032E741E35FE316D0AF2D9801AE01FF90DD
:101BF0000F911F91CF91DF913DDE77CF0BD075CF45
:101C000066DF28F06BDF18F0952309F057CF5CCF23
:101C100011249FCF7BDFA0F3959FD1F3950F50E068
:101C2000551F629FF001729FBB27F00DB11D639F8E
:101C3000AA27F00DB11DAA1F649F6627B00DA11D34
:101C4000661F829F2227B00DA11D621F739FB00DDA
:101C5000A11D621F839FA00D611D221F749F33274A
:101C6000A00D611D231F849F600D211D822F762FE3
:101C70006A2F11249F5750408AF0E1F088234AF0E0
:101C8000EE0FFF1FBB1F661F771F881F915050402C
:101C9000A9F79E3F510570F011CF5BCF5F3FECF38A
:101CA000983EDCF3869577956795B795F795E79518
:101CB0009F5FC1F7FE2B880F911D9695879597F929
:101CC0000895FA01EE0FFF1F30962105310599F1B5
:101CD0006115710561F48038BFE39B0749F1689491
:101CE0009038810561F08038BFEF9B0741F0992360
:101CF00042F5FF3FE1053105210511F1E894089413
:101D0000E795D901AA2329F4AB2FBE2FF85FD0F3B2
:101D100010C0FF5F70F4A695E0F7F73950F019F0A6
:101D2000FF3A38F49F779F930CD00F9007FC9058A0
:101D300008953EF0C9CE60E070E080E89FE308952A
:101D40004FE79F775F934F933F932F9317DF2F9129
:101D50003F914F915F9152DF05C019F40EF0AECE66
:101D6000F7CEB2CEDBDEC8F39638C0F707F80F9295
:101D7000E8942BE33AEA48EB5FE74EDF0F920F92CD
:101D80000F924DB75EB70F92ADD0E6E0F1E048D0CC
:101D90004F915F91EF91FF91E595EE1FFF1F49F085
:101DA000FE57E0684427EE0F441FFA95E1F741958E
:101DB000550B64D00F9007FE58C00895990F000886
:101DC000550FAA0BE0E8FEEF16161706E807F9070D
:101DD000C0F012161306E407F50798F0621B730BA8
:101DE000840B950B39F40A2661F0232B242B252B29
:101DF00021F408950A2609F4A140A6958FEF811DCC
:101E0000811D08959F3F31F0915020F4879577957B
:101E10006795B795880F911D9695879597F90895C1
:101E2000DF93CF931F930F93FF92EF92DF927B018B
:101E30008C01689405C0DA2EEF01ECDEFE01E89417
:101E4000A5912591359145915591AEF3EF0112DDA4
:101E5000FE019701A801DA9479F7DF90EF90FF90E7
:101E60000F911F91CF91DF9108959B01AC0160E02C
:101E700070E080E89FE351CD21CEC4CF4FDEE8F380
:101E80009923D9F3940F511DBBF39150504094F016
:101E900059F0882332F0660F771F881F9150504009
:101EA000C1F79E3F510544F7880F911D9695879580
:101EB00097F908955F3FACF0983E9CF0BB2786955C
:101EC00077956795B79508F4B1609395C1F7BB0F07
:101ED00058F711F460FFE8CF6F5F7F4F8F4F9F4F30
:101EE000E3CF37CEFA01DC01AA0FBB1F9B01AC0187
:101EF000BF5728F422273327442750781FC0B751F3
:101F000088F4AB2F0024469537952795011CA3959F
:101F1000D2F3002069F0220F331F441FB395DAF388
:101F20000DD096CC61307105A0E88A07B94630F42F
:101F30009B01AC016627772788279078309621F09F
:101F400020833183428353830895EE0FFF1F0024C3
:101F5000001C0BBE0790F691E02D0994A29FB001E2
:101F6000B39FC001A39F700D811D1124911DB29FCD
:101F7000700D811D1124911D08950F931F93CF9310
:101F8000DF93CDB7DEB72E970FB6F894DEBF0FBE46
:101F9000CDBF0D891E8986E08C831A8309838FEF5C
:101FA0009FE79E838D83AE01475E5F4F6F89788D7B
:101FB000CE01019610D0EF81F885E00FF11F10825D
:101FC0002E960FB6F894DEBF0FBECDBFDF91CF9136
:101FD0001F910F9108952F923F924F925F926F92AF
:101FE0007F928F929F92AF92BF92CF92DF92EF92A9
:101FF000FF920F931F93CF93DF93CDB7DEB72B974D
:102000000FB6F894DEBF0FBECDBF6C017B018A0115
:10201000FC0117821682838181FFBFC1CE01019628
:102020003C01F6019381F70193FD859193FF819126
:102030007F01882309F4ADC1853239F493FD859180
:1020400093FF81917F01853221F4B60190E0D6D1D2
:10205000E8CF912C212C312CFFE1F315D8F08B32F5
:1020600079F038F4803279F08332A1F4232D2061A5
:102070001DC08D3261F0803369F4232D216016C0BC
:10208000832D8260382EE32DE4603E2E2AC0F32D8E
:10209000F8601DC037FC2DC020ED280F2A3040F01D
:1020A0008E32B9F436FC75C1232D2064322E19C04E
:1020B00036FE06C08AE0989E200D1124922E11C093
:1020C000EAE02E9E200D1124222EF32DF0623F2EE9
:1020D00008C08C3621F4832D8068382E02C08836E3
:1020E00041F4F70193FD859193FF81917F01811167
:1020F000B3CF982F9F7D9554933028F40C5F1F4FDA
:102100009FE399830DC0833631F0833771F08335B7
:1021100009F055C020C0F801808189830E5F1F4FF0
:1021200088248394912C530112C02801F2E04F0EB1
:10213000511CF801A080B18036FE03C0692D70E00B
:1021400002C06FEF7FEFC5014ED14C018201F32D2C
:10215000FF773F2E15C0280122E0420E511CF801E6
:10216000A080B18036FE03C0692D70E002C06FEF21
:102170007FEFC5012DD14C01F32DF0683F2E820178
:1021800033FC19C0822D90E088169906A0F4B601A0
:1021900080E290E033D12A94F5CFF50137FC8591A8
:1021A00037FE81915F01B60190E028D121102A9479
:1021B00021E0821A91088114910479F7E1C08436F4
:1021C00011F0893639F5F80137FE07C06081718159
:1021D000828193810C5F1F4F08C060817181072E3F
:1021E000000C880B990B0E5F1F4FF32DFF763F2ECF
:1021F00097FF09C090958095709561957F4F8F4F9F
:102200009F4FF0683F2E2AE030E0A30133D1882EA3
:10221000861844C0853731F4232D2F7EB22E2AE054
:1022200030E025C0932D997FB92E8F36C1F018F478
:10223000883579F0AEC0803719F0883721F0A9C011
:10224000E92FE061BE2EB4FE0DC0FB2DF460BF2E61
:1022500009C034FE0AC0292F2660B22E06C028E02D
:1022600030E005C020E130E002C020E132E0F801BA
:10227000B7FE07C060817181828193810C5F1F4F1F
:1022800006C06081718180E090E00E5F1F4FA30166
:10229000F1D0882E8618FB2DFF773F2E36FE0DC01D
:1022A000232D2E7FA22E891458F434FE0BC032FC4D
:1022B00009C0832D8E7EA82E05C0B82CA32C03C088
:1022C000B82C01C0B92CA4FE0FC0FE01E80DF11D11
:1022D0008081803321F49A2D997EA92E09C0A2FE17
:1022E00006C0B394B39404C08A2D867809F0B394E1
:1022F000A3FC10C0A0FE06C0B21480F4280C922CDF
:102300009B180DC0B21458F4B60180E290E076D06C
:10231000B394F8CFB21418F42B1802C0982C212CC7
:10232000A4FE0FC0B60180E390E068D0A2FE16C004
:10233000A1FC03C088E790E002C088E590E0B60108
:102340000CC08A2D867851F0A1FE02C08BE201C03C
:1023500080E2A7FC8DE2B60190E050D0891430F401
:10236000B60180E390E04AD09A94F8CF8A94F301C2
:10237000E80DF11D8081B60190E040D08110F6CFCC
:10238000222009F44ECEB60180E290E037D02A94A4
:10239000F7CFF6018681978102C08FEF9FEF2B96D2
:1023A0000FB6F894DEBF0FBECDBFDF91CF911F9166
:1023B0000F91FF90EF90DF90CF90BF90AF909F90E4
:1023C0008F907F906F905F904F903F902F900895E7
:1023D000FC010590615070400110D8F780959095F0
:1023E0008E0F9F1F0895FC016150704001900110F5
:1023F000D8F7809590958E0F9F1F08950F931F9388
:10240000CF93DF93FB01238121FD03C08FEF9FEF6B
:102410002CC022FF16C04681578124813581421786
:10242000530744F4A081B1819D012F5F3F4F318359
:1024300020838C93268137812F5F3F4F37832683FC
:1024400014C08B01EC01FB010084F185E02D09959E
:10245000892BE1F6D80116968D919C9117970196DC
:1024600017969C938E931697CE01DF91CF911F9173
:102470000F910895FA01AA27283051F1203181F1F6
:10248000E8946F936E7F6E5F7F4F8F4F9F4FAF4F7C
:10249000B1E03ED0B4E03CD0670F781F891F9A1F8F
:1024A000A11D680F791F8A1F911DA11D6A0F711D43
:1024B000811D911DA11D20D009F468943F912AE04F
:1024C000269F11243019305D3193DEF6CF01089537
:1024D000462F4770405D4193B3E00FD0C9F7F6CF68
:1024E000462F4F70405D4A3318F0495D31FD405230
:1024F000419302D0A9F7EACFB4E0A69597958795C6
:1025000077956795BA95C9F70097610571050895A4
:102510009B01AC010A2E0694579547953795279550
:10252000BA95C9F7620F731F841F951FA01D0895E8
:04253000F894FFCF4D
:1025340058020000803F1895FCBF6744793F1BD6C2
:10254400B738BCD037391BD6B7380000803F189550
:10255400FCBF6744793F1BD6B738BCD037391BD68C
:10256400B7380000803F1895FCBF6744793F1BD6FD
:10257400B738BCD037391BD6B7380000803F189520
:10258400FCBF6744793F1BD6B738BCD037391BD65C
:10259400B7380000803F6350FABF0CE0743F52200C
:1025A4007D39E612FD3952207D390000803F1A51F1
:1025B400FABF2FDD743F52207D39E612FD395220D7
:1025C4007D39256400496E6974204F4B00434F32B6
:0625D4000070706D0000B4
:00000001FF
